{
  "address": "0x6dAc5fD974C71D12186B57F5d163B09E4Cf618df",
  "abi": [
    {
      "inputs": [
        {
          "internalType": "contract IPriceFeed",
          "name": "_priceFeed",
          "type": "address"
        }
      ],
      "stateMutability": "nonpayable",
      "type": "constructor"
    },
    {
      "anonymous": false,
      "inputs": [],
      "name": "SomeEvent",
      "type": "event"
    },
    {
      "inputs": [],
      "name": "doSomethingWithLatestPrice",
      "outputs": [],
      "stateMutability": "nonpayable",
      "type": "function"
    },
    {
      "inputs": [],
      "name": "priceFeed",
      "outputs": [
        {
          "internalType": "contract IPriceFeed",
          "name": "",
          "type": "address"
        }
      ],
      "stateMutability": "view",
      "type": "function"
    }
  ],
  "transactionHash": "0xc601424f40f132ed3e8102328b3096195f860ec8cd1502ae5339b60ba1e45d02",
  "args": [
    "0x52aD0Ad031E8efd67ccc3a862E37d69fC79c7072"
  ],
  "numDeployments": 1,
  "solcInputHash": "4581424b3d128c64751c1539b199455f",
  "bytecode": "0x608060405234801561001057600080fd5b5060405161067b38038061067b83398101604081905261002f91610054565b600080546001600160a01b0319166001600160a01b0392909216919091179055610084565b60006020828403121561006657600080fd5b81516001600160a01b038116811461007d57600080fd5b9392505050565b6105e8806100936000396000f3fe608060405234801561001057600080fd5b50600436106100365760003560e01c8063741bef1a1461003b578063e2f2533b14610084575b600080fd5b60005461005b9073ffffffffffffffffffffffffffffffffffffffff1681565b60405173ffffffffffffffffffffffffffffffffffffffff909116815260200160405180910390f35b61008c61008e565b005b60008060008060009054906101000a900473ffffffffffffffffffffffffffffffffffffffff1673ffffffffffffffffffffffffffffffffffffffff1663e360a49e6040518163ffffffff1660e01b8152600401606060405180830381865afa1580156100ff573d6000803e3d6000fd5b505050506040513d601f19601f82011682018060405250810190610123919061039e565b9194509250905042610138620493e0836103cc565b10156101a4576040517f08c379a000000000000000000000000000000000000000000000000000000000815260206004820152601460248201527f50726963652075706461746520746f6f206f6c64000000000000000000000000604482015260640160405180910390fd5b60008060009054906101000a900473ffffffffffffffffffffffffffffffffffffffff1673ffffffffffffffffffffffffffffffffffffffff166306fdde036040518163ffffffff1660e01b8152600401600060405180830381865afa158015610212573d6000803e3d6000fd5b505050506040513d6000823e601f3d908101601f1916820160405261023a919081019061045f565b90506102c5816040518060400160405280601d81526020017f707269636520776173207570646174656420726563656e746c7920746f000000815250670de0b6b3a76400008761028a919061050c565b6040518060400160405280600381526020017f55534400000000000000000000000000000000000000000000000000000000008152506102f4565b6040517fb7575244c27f0af0a38da3d7e04920b4409766ef4699eea08f74dff24db98a1a90600090a150505050565b61036b8484848460405160240161030e9493929190610573565b60408051601f198184030181529190526020810180517bffffffffffffffffffffffffffffffffffffffffffffffffffffffff167f5d1a971a00000000000000000000000000000000000000000000000000000000179052610371565b50505050565b61037a8161037d565b50565b60006a636f6e736f6c652e6c6f679050600080835160208501845afa505050565b6000806000606084860312156103b357600080fd5b8351925060208401519150604084015190509250925092565b80820180821115610406577f4e487b7100000000000000000000000000000000000000000000000000000000600052601160045260246000fd5b92915050565b7f4e487b7100000000000000000000000000000000000000000000000000000000600052604160045260246000fd5b60005b8381101561045657818101518382015260200161043e565b50506000910152565b60006020828403121561047157600080fd5b815167ffffffffffffffff8082111561048957600080fd5b818401915084601f83011261049d57600080fd5b8151818111156104af576104af61040c565b604051601f8201601f19908116603f011681019083821181831017156104d7576104d761040c565b816040528281528760208487010111156104f057600080fd5b61050183602083016020880161043b565b979650505050505050565b600082610542577f4e487b7100000000000000000000000000000000000000000000000000000000600052601260045260246000fd5b500490565b6000815180845261055f81602086016020860161043b565b601f01601f19169290920160200192915050565b6080815260006105866080830187610547565b82810360208401526105988187610547565b90508460408401528281036060840152610501818561054756fea264697066735822122058d581fd18acfb52c7e63c0cdbb68f120816119d8ffd81c29afd4b0c9b946b5d64736f6c63430008140033",
  "devdoc": {
    "kind": "dev",
    "methods": {},
    "version": 1
  },
  "userdoc": {
    "kind": "user",
    "methods": {},
    "version": 1
  },
  "storageLayout": {
    "storage": [
      {
        "astId": 7,
        "contract": "contracts/Sample.sol:Sample",
        "label": "priceFeed",
        "offset": 0,
        "slot": "0",
        "type": "t_contract(IPriceFeed)91"
      }
    ],
    "types": {
      "t_contract(IPriceFeed)91": {
        "encoding": "inplace",
        "label": "contract IPriceFeed",
        "numberOfBytes": "20"
      }
    }
  }
}